:020000040000FA
:02000000532883
:080008000528F100030E83013D
:10001000F2000A08F3008A010C18292887154B20E2
:1000200087114B200E2873088A00720E8300F10E90
:10003000710E09001010FE308F0083160C1483120D
:10004000093090002030A800A501A6010130A700CA
:1000500008000C102F080F392804870028122F08D9
:100060000F398700FE308F0027088E071030A60753
:10007000003003180130A507031828162608703E23
:10008000250826060318250FFF3E0130031802300D
:10009000A7006D201328A0011430A100A00B4E284A
:1000A000A10B4E28080083018B018C0103179E01D0
:1000B0009F01031383168C01FF3085008600C0303A
:1000C000870083128501870100241A200B178B17E4
:1000D00068289B200023A40108002D08AE000024FE
:1000E000AD1B79282E1F7B282D082E063F390319BA
:1000F0008028AF0181282408043C031D8128692041
:100100002D1724080339031906238820A40A0800A0
:10011000AF11AF18972824080139031D98282F180C
:1001200097282F1D982824080639031D9828AF15F5
:100130002F08870008000022B0012D080F39031D89
:10014000AA280030B1000330B2000430B3000430FC
:10015000B40008002D080C39031DB9280030B10087
:100160000830B2000A30B3000030B4003508B400E3
:1001700008002D1AC4280030B1001030B2001C3025
:10018000B3001C30B40008002830B1003830B20091
:0A0190004430B300F030B400080062
:100400002D080F39A0000310A00DA00DA00D023083
:100410008A00200882070430B5000030B6000030A2
:10042000B700080000000C30B5000030B600003006
:10043000B700080000002830B5000030B6000030DA
:10044000B700080000007830B5000030B60000307A
:10045000B70008000000F030B5000030B6000030F2
:10046000B70008000000D030B5000230B600003000
:10047000B700080000006030B5000930B600003059
:10048000B700080000002030B5001C30B600003076
:10049000B700080000004030B5003830B60000302A
:1004A000B70008000000C030B500A830B60000302A
:1004B000B700080000008030B5003230B6000230CE
:1004C000B700080000008030B5009730B600063055
:1004D000B700080000000030B5004630B600053017
:1004E000B700080000000030B500D230B6000F3071
:1004F000B700080000000030B500BC30B600343052
:10050000B700080000000030B5003430B6009E305F
:06051000B7000800000026
:100600000330A900AA01AB01AC0108000E23AA0F18
:100610000C2BAB0F0C2BAC0A0800A90003308A008E
:10062000290882072D1E2F1108002A083002031DF9
:10063000122B0430AF000B300D2B2A083102031DA2
:10064000122B0530AF0013300D2B2A083202031D88
:10065000122B0730AF001B300D2B2A083302031D6D
:10066000122B0430AF0023300D2B2A083402031D57
:10067000122B0030AF002B300D2B2C083702031D3E
:10068000122B31300D2B2B083602031D122B373065
:100690000D2B2A083502031D122B002303300D2BCE
:10080000A001A101EF30A20083160F308600C03096
:1008100087008312AD01220886000310A00CA10CF2
:10082000871FA015071FA115051D2D140314A20D68
:10083000220A031D0B2C20242108A00020240800DC
:10084000AD1B08000310AD0DAD0D04308A0020086B
:100850000F392C24AD0408008207803400340134A1
:1008600080340234803480348034033480348034E3
:0A08700080348034803480348034FA
:02400E00D033AD
:00000001FF
